:020000022000DC
:1070000000000420757302005D7302005F730200CC
:1070100061730200637302006573020000000000E8
:107020000000000000000000000000006773020084
:1070300069730200000000006B7302006D730200B0
:10704000FDCC02006F730200D1D20200F5FF0200F6
:107050006F7302006F730200C9D102006F730200E8
:107060006F7302006F7302006F7302006F73020090
:107070006F7302006F7302006F7302006F73020080
:107080006F730200618C02006F7302006F73020065
:107090006F7302006F730200517303006F7302007D
:1070A0006F7302006F7302006F7302006F73020050
:1070B0006F7302006F730200000000000000000008
:1070C0006F7302006F7302006F7302006F73020030
:1070D0006F7302006F7302006F7302006F73020020
:1070E0006F7302006F7302006F73020000000000F4
:1070F000000000006F730200000000006F730200C8
:10710000000000000000000000000000000000007F
:10711000000000000000000000000000000000006F
:10712000000000000000000000000000000000005F
:10713000000000000000000000000000000000004F
:10714000000000000000000000000000000000003F
:10715000000000000000000000000000000000002F
:10716000000000000000000000000000000000001F
:10717000000000000000000000000000000000000F
:1071800000000000000000000000000000000000FF
:1071900000000000000000000000000000000000EF
:1071A00000000000000000000000000000000000DF
:1071B00000000000000000000000000000000000CF
:1071C00000000000000000000000000000000000BF
:1071D00000000000000000000000000000000000AF
:1071E000000000000000000000000000000000009F
:1071F000000000000000000000000000000000008F
:10720000354936480A1A02D0072291438D4634493F
:1072100034480A1A06D00722914381F309880222D2
:1072200082F3148830483149314A00F044F831483B
:107230003149324A00F03FF831483249324A00F0D1
:107240003AF832483249334A00F035F83248334987
:10725000334A00F030F833483349344A00F02BF811
:1072600033483449344A00F026F83448344900227F
:1072700000F02CF833483449002200F027F8334856
:107280003349091A082902DB002202604160314AB1
:1072900090471F481F49884205D00268043003B454
:1072A000904703BCF7E700208646EC46002000210B
:1072B000294A9047FEE7884207D0521A05D0037842
:1072C00001300B700131013AF9D17047884202D088
:1072D00002700130FAE770470000042000E003204C
:1072E000000004200000042074B803007422002071
:1072F00000230020D0730200D0730200DC7703006B
:1073000074B8030074220020742200205C7903000A
:107310005C7903005C7903005C7903005C7903000D
:107320005C7903005C7903005C79030072B80300A8
:1073300000B90300002300200023002000230020C8
:107340007032002070320020703200207032002035
:10735000705200209D730200510D0300FEE7FEE70E
:10736000FEE7FEE7FEE7FEE7FEE7FEE7FEE7FEE7F5
:1073700000F002B8FFF7FCBF0F484FF00701884349
:1073800085460E4880470E48016841F4700101604F
:10739000BFF34F8FBFF36F8FFFF732BF09480A4922
:1073A0000A4A884207D0521A05D0037801300B7080
:1073B0000131013AF9D170470000042045C00200B4
:1073C00088ED00E04879030060220020742200204C
:1073D00000B5A1B00590049103920293049804F0C3
:1073E00031FB039B1593029B1693002317930023F5
:1073F0008DF8603000231993229B1A9300231F936A
:107400000FA91F9B0822049804F0F6FB08231F9382
:10741000119B1293BDF84030ADF84C30BDF84230AE
:10742000ADF84E3000238DF851309DF83C3003F01C
:107430000303DBB2012B26D10F9BC3F395231C93CF
:107440009DF83C30C3F3C203DBB28DF85030BDF879
:107450003C30C3F38313DBB21B931B9B9A0009A937
:107460001F9B049804F0C8FB1B9B9B001F9A1344AE
:107470001F9312AA09A915AB009313461B9A1C98D7
:1074800001F00EF82FE09DF83C3003F00303DBB26F
:10749000022B28D1BDF83E30C3F389139BB21E9353
:1074A0009DF83C30C3F3C203DBB28DF850301E9B15
:1074B000082B28BF08231D9307A91F9B1D9A04981A
:1074C00004F09AFB1F9A1D9B13441F931E9A1D9B49
:1074D000D31A1E9315AB12AA07A81D9901F082F8C2
:1074E0001E9B002BE3D1049804F0BBFA00BF21B02F
:1074F0005DF804FB00B583B00190019B1B781A4630
:107500000C4B9B5C002B05D0019B0433184607F005
:10751000D7F90BE0019B1B781A46064B9B5C002BAE
:1075200004D1019B0C33184606F046FB00BF03B0A4
:107530005DF804FB082A002000B587B00390029193
:1075400013468DF8073000230593039B1B781A46DA
:10755000114B9B5C002B09D0039B04339DF8072043
:107560000299184607F00EFA05900FE0039B1B786E
:107570001A46094B9B5C002B08D1039B0C339DF8EA
:1075800007200299184606F08FFB0590059B1846C8
:1075900007B05DF804FB00BF082A002082B001900C
:1075A0000091034B01221A7000BF02B0704700BF68
:1075B0004023002030B58DB003468DF807301A4BBC
:1075C00002AC1D460FCD0FC495E80F0084E80F00F4
:1075D000062302934FF0FF3303934FF0FF330493DE
:1075E0004FF0FF3305934FF0EB7308939DF807308E
:1075F000002B01D00D4A00E0002202AB19460C48D6
:1076000005F08AF90B900B9B0A930A9B002B04D080
:10761000084A43210A9801F0A9F8074A9DF8073063
:10762000137000BF0DB030BDDC7903009D75020002
:10763000742200205C7903004123002000B583B050
:1076400001238DF807309DF807301846FFF7B2FF89
:1076500000BF03B05DF804FB00B589B00390029150
:107660000192019B8DF81F30124B00221A709DF879
:107670001F301A4602991048FFF75EFF0690069BDE
:107680000593059B002B04D00C4A5321059801F06B
:107690006DF800BF0A4B1B78002B07D0054B1B78F9
:1076A000DBB283F00103DBB2002BF3D100BF09B0E2
:1076B0005DF804FB40230020742200205C79030065
:1076C0004123002000B585B003900291054B009343
:1076D0004023054A02990398FFF77AFE00BF05B0E0
:1076E0005DF804FB597602000023002082B001906F
:1076F00000BF02B07047000000B583B0019005489C
:10770000FFF7F8FE0020FFF755FF00BF03B05DF85C
:1077100004FB00BF7422002082B00190019BDB6853
:1077200001225A7100BF02B07047000000B583B05B
:107730004FF0FF330193FFF781FF0421084800F069
:10774000CBFD0190019B002B03DA0649482009F08C
:107750001BFA0348FFF7E0FF00BF03B05DF804FB2E
:10776000387903001C7A030000B583B001900091C2
:10777000019B1B681B6800990198984700BF03B0E4
:107780005DF804FB00B583B00190019B1B685B684A
:107790000198984700BF03B05DF804FB00B583B0C3
:1077A0000190019B1B689B680198984700BF03B03C
:1077B0005DF804FB82B001900B468DF80330019B0D
:1077C000DB689DF803201A7100BF02B0704782B0D9
:1077D0000190019BDB681B79184602B0704782B0AC
:1077E0000190019BDB6801225A7100BF02B0704713
:1077F00082B00190019BDB685B79184602B070474C
:1078000000B585B0019000910C4B00221A700C4815
:1078100004F07CF80390039B002B01D0039B08E04D
:10782000084804F009FA084A084BD31ADB08029307
:107830000023184605B05DF804FB00BFAC2400200F
:1078400054780300A07A03003879030068780300B5
:10785000024A034BD31ADB081846704738790300F5
:107860006878030000B587B001900B468DF80330AF
:107870009DF80330002B1FD0FFF7EAFF0490002390
:10788000059313E0059B9B000E4A13440393039B4F
:107890001B881A46019B1B689A4204D1019B059ADA
:1078A0001A60002309E0059B01330593059A049BA8
:1078B0009A42E7D3052300E00023184607B05DF89D
:1078C00004FB00BF7422002000B585B001900B4678
:1078D0008DF803309DF8032001AB11461846FFF7E1
:1078E000C1FF0346002B07D1019BDB00054A13446F
:1078F0000393039B1B6800E00023184605B05DF866
:1079000004FB00BF6878030084B001900B468DF83B
:107910000330019BDB00174A134402939DF80330A8
:10792000013B032B1CD801A252F823F03D79020041
:10793000457902004D7902005779020002238DF843
:107940000F3011E004238DF80F300DE0029B1B79FE
:107950008DF80F3008E0029B5B798DF80F3003E063
:1079600000238DF80F3000BF9DF80F30184604B08B
:10797000704700BF6878030084B001900091002335
:107980008DF80F30019B1B7803F00403DBB2002B52
:1079900024D0019B1B78C3F30103DBB2012B02D07F
:1079A000022B0CD017E0009B1B68019A1288C2F3CF
:1079B0008312D2B213449A1C009B1A600BE0009B06
:1079C0001B68019A5288C2F3891292B213449A1C1E
:1079D000009B1A6000BF01238DF80F309DF80F3017
:1079E000184604B07047000000B58BB00023ADF816
:1079F00026303E4802F0F6FE3D4802F0F3FE3D4BD5
:107A00009B6804933C4B1B680693049A069B1340A7
:107A100002339B00374A13440433089304AB1946DE
:107A20000898FFF7A9FF0346002B09D0049A069B8C
:107A3000134002339B002F4A134404330893EDE7AD
:107A400000BF0023079311E0049B5A1C0492069A7E
:107A50001340079A920001A90A44264902339B0069
:107A60000B445B681360079B01330793079B012B53
:107A7000EAD99DF80430C3F30103DBB2012B10D027
:107A8000022B1CD1BDF80A30ADF82630BDF8063007
:107A9000C3F389139BB203339A08049B13440493E2
:107AA00013E0BDF80A30ADF82630BDF80430C3F35A
:107AB0008313DBB21A46049B1344049305E00F4979
:107AC0004FF4C27009F060F800BF094802F096FE5A
:107AD0000590059B002B02D0049B064A9360BDF8DD
:107AE000263018460BB05DF804FB00BFC428002008
:107AF000C0280020AC24002090220020B07A03008F
:107B000000B585B00021074802F0ADFD0390039B4E
:107B10000293029B83F310030193019B184605B067
:107B20005DF804FBC828002000B589B003900291DD
:107B300001920093039B1B0C0793FFF7E1FF069054
:107B4000FFF786FE0246079B934204D3214940F289
:107B5000A91009F019F8069B1904009B5A1C0A9BEE
:107B60001340079A0A431C4902339B000B445A6096
:107B7000009A0A9B134002339B00174A13440433B4
:107B80000593039B03F00703D9B2059A137861F3B9
:107B9000C5031370019B03F00F03D9B2059A138834
:107BA00061F389131380029BC3F31501059A1368CF
:107BB00061F39F231360059A1378012161F3010398
:107BC0001370059A13786FF38203137000BF09B026
:107BD0005DF804FBB07A0300AC24002000B58DB042
:107BE0000390029113468DF80730039B02330A93EA
:107BF00001238DF8273000238DF81B300DF11B0376
:107C0000184600F0A1FF404B5A68029B1A603F4B98
:107C10001A683D4B99683C4B5B68CB1A134401339F
:107C20000B9314E001213A4802F0ACFDFFF7DCFEB3
:107C300007900799364802F0A5FD344B1A68324B7D
:107C40009968314B5B68CB1A134401330B930A9A42
:107C50000B9B9A42E6D89DF82730002B48D0002392
:107C600005939DF80730002B17D09DF814300122A2
:107C700062F301038DF814309DF8143043F00403CF
:107C80008DF81430039B03F00F03DAB2BDF8143003
:107C900062F38913ADF8143016E09DF81430022217
:107CA00062F301038DF814309DF8143043F004039F
:107CB0008DF81430039BC3F309039AB2BDF8163054
:107CC00062F38F13ADF816300F4B5A680F4B1B68D9
:107CD000134002339B000C4A134404330893059A63
:107CE000089B1A60084B5A680A9B1344064A536063
:107CF0009DF81B30184600F03DFF9DF827301846D0
:107D00000DB05DF804FB00BFAC24002090220020E1
:107D1000C828002000B58BB005900491039202930F
:107D20001F4B1B68079306AB012219460298FFF709
:107D300055FF0346002B24D0069B023309930023F2
:107D4000089311E0089B9B00039A1A44099B591C55
:107D5000099107990B401268124902339B000B44AA
:107D60005A60089B01330893089A029B9A42E9D310
:107D7000069A079B00931346029A04990598FFF709
:107D8000D3FE084B1B78002B05D000BF00F09AF8FB
:107D90000346002BFAD100BF0BB05DF804FB00BF17
:107DA00090220020AC24002000B583B00190009107
:107DB0000023002200990198FFF7ACFF00BF03B039
:107DC0005DF804FB00B587B0039002910192019B1E
:107DD000059305AA012302990398FFF79BFF00BFB3
:107DE00007B05DF804FB00B587B0039002910192E3
:107DF0000093019B0493009B059304AA022302991C
:107E00000398FFF787FF00BF07B05DF804FB00B5DC
:107E100089B00390029101920093019B0593009B0E
:107E200006930A9B079305AA032302990398FFF779
:107E300071FF00BF09B05DF804FB00B58BB0039083
:107E4000029101920093019B0593009B06930C9B6A
:107E500007930D9B08930E9B099305AA052302998E
:107E60000398FFF757FF00BF0BB05DF804FB00B5A8
:107E70008BB00390029101920093019B0493009BAD
:107E800005930C9B06930D9B07930E9B08930F9BEA
:107E9000099304AA062302990398FFF73BFF00BF4A
:107EA0000BB05DF804FB0000054B9A68044B5B685F
:107EB0009A420CBF01230023DBB21846704700BF73
:107EC000AC24002000B599B0FFF7EEFF0346002B6D
:107ED00001D00023C0E19B4B0022C3F81824BFF35C
:107EE0004F8F00BF974B9B680493974B1B68109371
:107EF000049A109B134002339B00924A13440433AC
:107F00001193002317930023169300230F9304ABC0
:107F100019461198FFF730FD0346002B19D0894B05
:107F2000D3F81834002B14D1864B5A68049B9A421C
:107F300005D8844B5B68834A936000238CE1049AE4
:107F4000109B134002339B007E4A13440433119369
:107F5000DDE70023159311E0049B5A1C0492109A4C
:107F60001340159A920001A90A44764902339B00F6
:107F70000B445B681360159B01331593159B012B14
:107F8000EAD99DF8043003F00303DBB2022B40F082
:107F90009C80BDF80630C3F389139BB20D93BDF8E6
:107FA0000630C3F389139BB2502B28BF50239BB2DA
:107FB0000C930C9BC3F309039AB2BDF8063062F32D
:107FC0008F13ADF806300C9B08330B939DF80430EB
:107FD000C3F3C203DBB20F930B995C4803F0A1FC1F
:107FE0001790179B002B00F0D380179803F02AFD01
:107FF00001A9169B0822179803F0E0FD169B083391
:108000001693049BDA43109B134001339B000A93A1
:108010000C9A0A9B9A4242D90A9B002B08D0049AD8
:10802000109B134002339B00464A1344043300E084
:10803000474B08930A9B002B02D00A9BDBB201E05E
:108040000C9BDBB28DF81F300A9B002B01D0404BFC
:1080500000E0002306930A9B002B06D00C9BDAB2AB
:108060000A9BDBB2D31ADBB200E000238DF8173095
:108070009DF81F20169B0899179803F09FFD9DF807
:108080001F30169A13441693069B002B16D09DF8AA
:108090001720169B0699179803F090FD0EE0049A9E
:1080A000109B134002339B00264A13440433099368
:1080B000169B0C9A0999179803F080FD0D9B0333CA
:1080C0009A08049B1344049362E09DF8043003F083
:1080D0000303DBB2012B5BD1BDF80430C3F3831380
:1080E000DBB2062B28BF0623DAB2BDF8043062F3F8
:1080F0008913ADF80430BDF80430C3F38313DBB249
:1081000002330E939DF80430C3F3C203DBB20F9326
:108110000E9B9B0019460D4803F003FC1790179B1C
:10812000002B35D0179803F08DFC01A9169B08226F
:10813000179803F043FD169B0833169300231593FD
:108140001DE000BFAC2400209022002054780300E2
:10815000B8240020049B5A1C0492109A1340023346
:108160009B003F4A1344191D169B0422179803F0E5
:1081700025FD169B04331693159B01331593BDF80B
:108180000430C3F38313DBB21A46159B9342E1D349
:10819000179B002B40D0324BD3F810341493304B44
:1081A000D3F81834002B1BD0179803F05AFC4DE07D
:1081B00000238DF84F301498FFF71AFB0346002B6D
:1081C00002D001238DF84F309DF84F30002B03D0A3
:1081D00017991498FFF7C8FA149BDB681B6814936F
:1081E000149B002BE4D1179803F03BFC00238DF87F
:1081F00003300DF10303184600F0A6FC184BD3F82A
:108200001834002B02D1049B154A93609DF803306B
:10821000184600F0AFFC19E0114BD3F8103412935C
:1082200006E01298FFF7BAFA129BDB681B681293FC
:10823000129B002BF5D10B4A0B4BD31ADB081B0406
:1082400043F0020309491846FFF7AEFDFFF72CFE85
:10825000034683F00103DBB2184619B05DF804FB56
:10826000AC24002098780300687803002C7B03007E
:1082700000B585B00023039323E0164BD3F81034E8
:10828000029301238DF807300FE00298FFF79FFA61
:1082900003461A46039B934203D100238DF807300F
:1082A00006E0029BDB681B680293029B002BECD16B
:1082B0009DF80730002B01D0039B07E0039B01339F
:1082C0000393039B092BD8DD4FF0FF33184605B00D
:1082D0005DF804FBAC24002000B585B001900B468E
:1082E0008DF80330FFF7C4FF0390039BB3F1FF3F0A
:1082F00001D1039B22E0039BDBB219460198FFF7F3
:1083000059FA104BD3F81034002B08D10D4A019BB9
:10831000C2F81034019BDB6800221A600DE0094BA3
:10832000D3F81034DA68019BDB6812681A60054BD9
:10833000D3F81034DB68019A1A60039B184605B025
:108340005DF804FBAC24002000B583B00C4BD3F8DF
:10835000103401930A4B01221A7009E00198FFF7CB
:108360003EFA0198FFF70EFA019BDB681B68019348
:10837000019B002BF2D100BF00BF03B05DF804FBEE
:10838000AC24002082B00190009100BF02B0704781
:1083900010B584B003900291039BDB88002B0AD0B8
:1083A000039BDB881A461F4B009313461E4A1F4946
:1083B000029802F05FFB039B1B7A052B2ED0039BD8
:1083C0005B7A002B12D0039B9B881A46039B1B7A77
:1083D00019461046FFF798FA03461A46144B53F80D
:1083E00022301A461349029802F044FB039B1B6893
:1083F00019460298FFF7C6FF039B1B7A1A460E4BDD
:1084000053F82240039B9B8800211846FFF75CFA33
:10841000034622460949029802F02CFB00BF04B033
:1084200010BD00BF607B0300707B0300A87B0300CE
:10843000A8220020C07B030094220020C47B0300FC
:1084400000B585B00390029113468DF80730039B69
:108450001B7A052B0FD0039B5B7A002B06D00D4BAC
:108460001B681A460C49029802F004FB0B4902985B
:1084700002F000FB07E09DF80730002B03D007490E
:10848000029802F0F7FA029802F0D2FA00BF05B0A3
:108490005DF804FBA8220020C07B0300D07B030012
:1084A00030B58BB007900691059204930E9B1B7B11
:1084B0008DF827300E9B00221A730E990498FFF74F
:1084C00067FF059B062B7FD801A252F823F000BF5F
:1084D000ED840200F7840200078502001B8502007C
:1084E00039850200618502009185020007990E9886
:1084F00002F0C0FA69E0069B1B681A4607990E98BD
:1085000002F0B8FA61E0069B1A68069B04331B6808
:1085100007990E9802F0AEFA57E0069B1A68069B80
:1085200004331968069B08331B6800930B460799B0
:108530000E9802F09FFA48E0069B1968069B0433E8
:108540001868069B08331B68069A0C321268019261
:10855000009303460A4607990E9802F08BFA34E01E
:10856000069B1868069B04331C68069B08331B682F
:10857000069A0C321268069910310968029101922C
:1085800000932346024607990E9802F073FA1CE006
:10859000069B1C68069B04331D68069B08331B68FA
:1085A000069A0C3212680699103109680698143040
:1085B000006803900291019200932B46224607998E
:1085C0000E9802F057FA00E000BF00220E990498BE
:1085D000FFF736FF0E9B9DF827201A7300BF0BB0E4
:1085E00030BD00BF00B587B00390029101920093A7
:1085F000029B082B60D8009B1B7B8DF81330009BDF
:1086000000221A7300990198FFF7C2FE0023059318
:1086100014E0059A029B9A4209D2039A059B1344DF
:108620001B781A462649009802F024FA03E02549EF
:10863000009802F01FFA059B01330593059B072B59
:10864000E7D92149009802F015FA0023059326E0A6
:10865000059A029B9A421BD2039A059B13441B78EE
:108660008DF812309DF812307E2B0AD89DF812300A
:1086700018460EF0EBFF0346002B02D09DF8123097
:1086800000E02E231A461149009802F0F3F903E0A6
:108690000F49009802F0EEF9059B01330593059B05
:1086A000072BD5D9012200990198FFF7C9FE009B3D
:1086B0009DF813201A7300E000BF07B05DF804FBBB
:1086C000D47B0300DC7B0300E07B0300E47B03003E
:1086D000E87B030086B003900291019201238DF89C
:1086E00017309DF81730204A039B13601E4A029BE7
:1086F00053601D4A019B9360039B44F20102934225
:1087000012D0039B44F20202934220D1019B164AED
:10871000D360154BDB681B68134A9361124BDB680F
:108720005B68114AD36112E0019B0F4A13610E4B43
:108730001B699B680C4A53610B4B1B691B680A4AF7
:108740009361094B1B695B68074AD36100BF72B62E
:1087500000BF00BF9DF81730DBB2002BFAD162B624
:1087600000BF00BF06B07047CC28002000B583B022
:1087700002900091019244F2010071466A4600F0B5
:1087800003F803B000BD00BF30B58BB00790069171
:10879000059272B600BFFFF7D7FD00BFFFF792FB4F
:1087A0000346002BFAD1079B44F2020293422FD0DA
:1087B000079B44F20202934269D8079B44F20102EC
:1087C000934237D0079B44F2010293425FD8079B44
:1087D000012B05D0079B41F2010293420CD056E0D9
:1087E000394A3A4BD31ADB081B0443F001033849DA
:1087F0001846FFF7D9FA57E0334A344BD31ADB084F
:108800001B0443F0010333491846FFF7CDFA4BE050
:10881000059B09932C4A2D4BD31ADB081B0443F00C
:108820000100099B5B681A46099B1B682A49FFF7F0
:10883000DAFA39E0059B0893234A244BD31ADB0864
:108840001B0443F00104089B9D68089B9B68184625
:1088500003F06CFA03461846089B5B681946089BB0
:108860001B68069A02920193009103462A461B490F
:108870002046FFF7E2FA144A144BD31ADB081B0414
:1088800043F0010316491846FFF78EFA0CE00E4A32
:108890000E4BD31ADB081B0443F00103069A11495F
:1088A0001846FFF78FFA00BF0F4B1B6803F0010358
:1088B000002B00D000BE059A06990798FFF70AFF23
:1088C00000BF0BB030BD00BF98780300687803008C
:1088D0006C7C03008C7C0300B07C0300CC7C030028
:1088E000F47C0300087D0300F0ED00E02DE9F04387
:1088F00083B0144800F09AF9034600221C4615463E
:10890000114BD3E9002314EB020845EB0309CDE931
:1089100000890E4BD3E90023DDE90001904271EBA1
:10892000030307D2DDE9002312F1807643F100074B
:10893000CDE90067DDE900231046194603B0BDE824
:10894000F08300BFCC220020F0280020F82800206F
:1089500008B5024800F077F900BF08BDCC2200201E
:1089600000B585B0034600918DF80730114A02AB7F
:108970001946104601F051FD0390039B002B13D0C4
:10898000039B9DF807201A70039B009A5A60094ABE
:1089900002AB1946104601F059FD0346002B01D0E9
:1089A000FFF7D6FF002300E00423184605B05DF86A
:1089B00004FB00BF00290020F0B587B003900291AE
:1089C0000192039B002B04D1164940F23E2008F08F
:1089D000DBF8039B0593059B1B7FDBB2002B01D0CB
:1089E00000231CE0059B019A9A61FFF77FFF024676
:1089F0000B46029900200C460546161943EB050765
:108A0000059BC3E90267059B1B69002B02D0059BF0
:108A1000029A1A6105990020FFF7A2FF0346184643
:108A200007B0F0BD2C7D030000B585B00190019B1F
:108A3000002B04D109494FF4157008F0A5F8019BEB
:108A40000393039B00221A7703990120FFF788FF05
:108A50000346184605B05DF804FB00BF2C7D0300FB
:108A600082B0EFF310830093009B019372B600BFB6
:108A7000019B184602B0704762B600BF00BF704746
:108A800000B585B00190FFF7EBFF0390164B9B6894
:108A9000002B1BD1144B01229A60144BD3F8802079
:108AA000134B1340104A1360104B114AC3F8802037
:108AB0000E4BD3F884300C4A53600C4B4FF0FF320E
:108AC000C3F88420019B00221A7002E0019B01225E
:108AD0001A70039B002B01D1FFF7CEFF002318462D
:108AE00005B05DF804FB00BF1029002000E100E0A4
:108AF000FC06FFBD00B585B003468DF80730104B6E
:108B00009B68002B16D09DF80730002B12D1FFF781
:108B1000A7FF03900B4A0A4B1B681360094A084BD6
:108B20005B685360064B00229A60039B002B01D1C7
:108B3000FFF7A2FF0023184605B05DF804FB00BF55
:108B40001029002000E100E000B583B0019000F0A2
:108B50002BF80346012B03D00549432008F014F8F5
:108B60000198FFF78DFF00BF03B05DF804FB00BF65
:108B7000A47D030000B583B003468DF8073000F0F4
:108B800013F80346012B03D00649512007F0FCFFE0
:108B90009DF807301846FFF7ADFF00BF03B05DF842
:108BA00004FB00BFA47D030084B0EFF305830193B1
:108BB000019BC3F308030393039B002B0DD1EFF339
:108BC00014830093009B0293029B03F00103002B8C
:108BD0000CBF01230023DBB200E00123184604B0E0
:108BE0007047000082B003468DF807309DF90730CA
:108BF000002B0DDB9DF8073003F01F0206499DF99D
:108C000007305B09012000FA02F2403341F82320CB
:108C100000BF02B0704700BF00E100E082B00190E9
:108C2000019BD3F80435184602B0704700B583B0F5
:108C30000190019B1B681846FFF7F0FF034618469A
:108C400003B05DF804FB00B583B00190019B93F97C
:108C500004301846FFF7C6FF00BF03B05DF804FB01
:108C600008B5044B1B68044A12681046984700BFB9
:108C700008BD00BF1C2900202029002082B00190DF
:108C8000019B03F00303002B0CBF01230023DBB285
:108C9000184602B07047000000B585B0019000236F
:108CA00003930EE00B4A039B52F82330002B05D0B0
:108CB000084A039B52F8233001989847039B0133DD
:108CC0000393039B032BEDD900BF00BF05B05DF8F4
:108CD00004FB00BF3429002082B001900091019B69
:108CE0001B78013B052B61D801A252F823F000BF8D
:108CF000098D0200118D0200378D0200698D02007E
:108D0000898D0200A58D0200009B00221A704EE0A2
:108D1000009B01221A70019B1A89009B9A81019B7A
:108D20009A88009BDA81019BDA68009B9A60009B1D
:108D300000221A743BE0009B02221A70019B1A89E0
:108D4000009B9A81019B9A88009BDA81019BDA68DB
:108D5000009B9A60019B9B7D062B0CBF0123002387
:108D6000DAB2009B1A7422E0009B03221A70019B66
:108D7000DA88009B9A81019B1A89009BDA81019B0A
:108D8000DA68009B9A6012E0009B04221A70019B33
:108D9000DA88009B9A81009B0022DA81009B0022E6
:108DA0009A6004E0009B05221A7000E000BF00BF3B
:108DB00002B0704784B001900091019B0393039A25
:108DC000009B9A4206D2039B1B68B3F1FF3F01D080
:108DD000012300E0002303F00103DBB2184604B0D6
:108DE000704782B00190019B5B8803339B00019A1E
:108DF0001344184602B0704700B583B0019000914B
:108E00000198FFF7EEFF0246009B934201D2022336
:108E100011E0019B9B884FF6FF72934208D0019BA3
:108E20001B88002B04D0019B9B68B3F1FF3F01D14D
:108E3000012300E00023184603B05DF804FB0000A6
:108E400000B583B00190019B002B13D00D4BDB6864
:108E50001A46019B93420DD30A4B1B691A46019B8C
:108E6000934207D80198FFF709FF0346002B01D072
:108E7000012300E0002303F00103DBB2184603B036
:108E80005DF804FB6022002082B003460A46ADF87C
:108E900006301346ADF80430BDF8062013491346DA
:108EA0009B0013449B000B4408331A88BDF8043020
:108EB0001344ADF80430BDF806200C4913469B005E
:108EC00013449B000B440A331A88BDF80430134442
:108ED000ADF80430BDF80430B3F5806F94BF0123C2
:108EE0000023DBB2184602B0704700BF58290020AB
:108EF00084B00190009148F2096303930023ADF818
:108F00000A3027E0BDF80A20164913469B00134497
:108F10009B000B4404331B68009A9A4215D9BDF894
:108F20000A20104913469B0013449B000B44043352
:108F30001B6803F58053009A9A4206D200230393DC
:108F4000019BBDF80A201A8008E0BDF80A30013301
:108F5000ADF80A30BDF80A30012BD3D9039B18466F
:108F600004B070475829002082B001900091009B06
:108F70009B7D022B09D9019B1A89009BDB88134436
:108F80009BB203339AB2019B1A81019B5A89009BC1
:108F9000DB88D31A9BB2033B9AB2019B5A8100BF74
:108FA00002B0704700B583B0074B1B681946002319
:108FB00000930823054A064802F008F903461846BC
:108FC00003B05DF804FB00BF80290020887E030009
:108FD0006022002000B585B0039003990023009320
:108FE0000823044A044802F0F1F80346184605B085
:108FF0005DF804FB907E03006022002000B585B080
:1090000003460091ADF8063000238DF80F30BDF80F
:1090100006300333ADF80A30BDF80A3040F2FE32B4
:10902000934202D948F208634BE00023ADF80C30BC
:109030003BE0BDF80C20254913469B0013449B00E0
:109040000B441B78002B2BD1BDF80A20BDF80C3047
:1090500011461846FFF718FF0346002B20D00123C6
:109060008DF80F30009BBDF80C201A80BDF80C2045
:10907000164913469B0013449B000B440A3319887E
:10908000BDF80C20BDF80A300B4498B20F491346C6
:109090009B0013449B000B440A3302461A8008E0ED
:1090A000BDF80C300133ADF80C30BDF80C30012B9D
:1090B000BFD99DF80F30002B01D0002301E048F20A
:1090C0000663184605B05DF804FB00BF5829002070
:1090D00082B003460A46ADF806301346ADF80430B8
:1090E000BDF804200D4913469B0013449B000B441C
:1090F0000A331A88BDF80630D31A9BB2BDF8042093
:10910000033B98B2054913469B0013449B000B4454
:109110000A3302461A8000BF02B070475829002067
:1091200008B50121024801F02DFB0346184608BD91
:109130004429002000B585B003460091ADF8063003
:10914000BDF80620244913469B0013449B000B44A2
:1091500004331B6803F580530293009B1B68039341
:10916000039B002B04D00398FFF73BFE039026E0FF
:10917000BDF80620184913469B0013449B000B447E
:1091800004331B680833039319E002990398FFF72F
:1091900033FE0346022B10D0022B10DC002B02D032
:1091A000012B05D00BE0009B039A1A6001230EE00F
:1091B0000398FFF716FE039001E0002307E00299F1
:1091C0000398FFF7F7FD0346002BDED10023184676
:1091D00005B05DF804FB00BF5829002000B585B03C
:1091E00001900091019B5B681846FFF729FE03463A
:1091F000002B19D0019B1A89244B1B899A4213D149
:10920000019B1A68019B5B689B689A420CD1019B89
:109210005B6819460098FFF76BFE0346002B0CBFF6
:1092200001230023DBB22CE0009B00221A8023E004
:109230000023029310E0029B0393039B9A68019B17
:109240001B689A4208D1029A019B5A600F4B1A89F7
:10925000019B1A81012314E0009B1B8802AA11467E
:109260001846FFF767FF0346002BE4D1009B1B88DD
:1092700001339AB2009B1A80009B1B88012BD7D91F
:109280000023184605B05DF804FB00BF88290020C4
:1092900000B587B00390029101920093324B1B7886
:1092A000DBB283F00103DBB2002B02D048F2016392
:1092B00055E0019B002B02D0009B002B49D148F2C6
:1092C00004634CE0009B9B881946284A0B469B0090
:1092D0000B449B0013441B78002B33D124E0009BEC
:1092E0001B680593039B002B06D0059B9A88039B64
:1092F0001B889A4200D017E0029B002B06D0059BEA
:109300001A88029B1B889A4200D00DE0059B9A6840
:10931000019B1A60009B1A68019B5A60144B1A89C2
:10932000019B1A8100231AE0009B9B88009A11463A
:109330001846FFF7FFFE0346002BD0D1009B00220A
:109340001A6000E000BF009B9B8801339AB2009B2B
:109350009A80009B9B88012BB4D948F20963184678
:1093600007B05DF804FB00BF282900205829002021
:109370008829002000B585B00190084B0199184656
:1093800001F04BF803901C22002103980EF0C3F962
:10939000039B184605B05DF804FB00BF4829002078
:1093A00000B583B00190044B0199184601F04EF8C6
:1093B00000BF03B05DF804FB4829002000B583B06E
:1093C0000190054B0199184601F054F803461846E0
:1093D00003B05DF804FB00BF4829002000B583B04E
:1093E0000190044B0199184601F05DF800BF03B0ED
:1093F0005DF804FB4829002008B50A4B1B68002BC8
:1094000004D109494FF4247007F0BEFB012105483F
:1094100001F0D0F90346002B14BF01230023DBB277
:10942000184608BD302900201C7E030000B587B017
:1094300003900291039B02229A750299039B1A1DC5
:10944000002300930423074801F0C0FE0590059B0C
:10945000002B01D1002301E048F20D63184607B04C
:109460005DF804FB6022002000B587B003900291F4
:10947000039B1B69002B01D0032200E00122039B08
:109480009A75029B08331946039B03F10C020023D3
:1094900000930423074801F099FE0590059B002BDB
:1094A00001D1002301E048F20D63184607B05DF8D2
:1094B00004FB00BF6022002000B587B0039002913A
:1094C000039B1B78032B01D1052200E00622039B9E
:1094D0009A75029B04331946039B03F1080200238B
:1094E00000930423074801F071FE0590059B002BB3
:1094F00001D1002301E048F20D63184607B05DF882
:1095000004FB00BF6022002000B587B003900B462B
:10951000ADF80A3003990023009304230D4A0E4846
:1095200001F054FE0590059B002B02D048F20D631C
:109530000BE0BDF80A20094913469B0013449B0029
:109540000B44103301221A700023184607B05DF84F
:1095500004FB00BF987E03006022002058290020F1
:1095600000B589B0019002AB00221A605A609A607F
:10957000019BDB6802930DF1160202AB11461846FF
:10958000FFF72CFE0346002B12D0039B0693069B8D
:109590009A88019BDA80069B1A88019B1A81039B9B
:1095A000BDF8162011461846FFF7AEFF079002E0FF
:1095B00048F209630793079B184609B05DF804FB5E
:1095C00000B587B00190019B981D02AA0D4B0021A8
:1095D000FFF75EFE0590059B002B08D1039B094A0F
:1095E000928811461846FFF78FFF059004E0082285
:1095F000002104480EF08FF8059B184607B05DF86F
:1096000004FB00BF9829002000B587B003900291A9
:10961000039B01229A75029B0C331846039B1A691F
:10962000039BDB889B00002100910146074801F065
:10963000CDFD0590059B002B01D1002301E048F2F0
:109640000D63184607B05DF804FB00BF60220020E0
:1096500082B0184B1B8901339AB2164B1A81154BF5
:1096600000225A80134B00221A730023ADF80630F3
:1096700018E0BDF80620104913469B0013449B00D8
:109680000B441A78BDF80630002A0CBF01220022D4
:10969000D1B2084A13440A469A72BDF80630013323
:1096A000ADF80630BDF80630012BE2D900BF00BF8F
:1096B00002B07047882900205829002084B001900A
:1096C00000238DF80F300023ADF80C3031E0BDF8E9
:1096D0000C301C4A13449B7A002B25D0BDF80C306B
:1096E000184A134400229A72BDF80C2016491346FA
:1096F0009B0013449B000B440C331B68002B13D1BD
:10970000BDF80C20104913469B0013449B000B44EA
:1097100010331B78002B07D0019BBDF80C201A805A
:1097200001238DF80F3008E0BDF80C300133ADF89F
:109730000C30BDF80C30012BC9D99DF80F301846FC
:1097400004B07047882900205829002008B5084B2C
:1097500005221A70074B02229A80064B1B68194695
:1097600000230122044801F013FE0346184608BDF9
:1097700088290020802900206022002000B583B0C5
:10978000164B5B88ADF80230BDF802201449134631
:109790009B0013449B000B440C331B68002B14D11B
:1097A0000E4B04221A70BDF802200D4913469B008F
:1097B00013449B000B4404331B6819460023012209
:1097C000084801F0E5FD019002E0FFF7BFFF0190BE
:1097D000019B184603B05DF804FB00BF88290020F8
:1097E000582900206022002000B587B0104B5B682C
:1097F0000593104B1A680F4B9B889B0013440493EE
:10980000059B5B880333ADF80E30094B03221A70B9
:109810000499074B5A68BDF80E309B000020009059
:10982000054801F0D3FC0346184607B05DF804FB79
:1098300088290020802900206022002000B583B004
:109840000A4B5B880A491846FFF774FC0346002B55
:1098500003D0FFF7C9FF019002E0FFF78FFF0190EF
:10986000019B184603B05DF804FB00BF8829002067
:109870008C29002008B50A4B06221A70084B5B8819
:109880001946084A0B469B000B449B0013440433C3
:109890001B681846FFF79EFB0346184608BD00BF2D
:1098A000882900205829002008B5054B07221A7086
:1098B000034B00225A60FFF775FB0346184608BDAC
:1098C0008829002008B50D48FFF7F8FE034683F00D
:1098D0000103DBB2002B0BD0094B00221A70084B9E
:1098E00000225A80064B00225A6041F61D5302E0C6
:1098F000FFF7A4FF0346184608BD00BF8A290020D1
:109900008829002082B0094B5B680193019B5B882A
:109910000333ADF80230064B9A88BDF80230134489
:109920009AB2034B9A8000BF02B07047882900208A
:109930008029002082B01E4B1B6801931D4B5B8861
:1099400019461D4A0B469B000B449B0013440433ED
:109950001B68174A1360174B5B881946164A0B465B
:109960009B000B449B0013440433019A1A60114B73
:109970005B8819460E4B98880F4A0B469B000B4498
:109980009B001344083302461A80094B02229A8036
:10999000084B5B881946084A0B469B000B449B000A
:1099A0001344103300221A7000BF02B0704700BF8A
:1099B00080290020882900205829002008B51A4B4A
:1099C0001B78072B2CD801A252F823F0ED99020046
:1099D000219A0200219A0200F9990200059A0200D8
:1099E000119A0200119A0200199A0200FFF730FE44
:1099F0000D4B01221A7014E0FFF784FF0A4B02227C
:109A00001A700EE0FFF796FF074B06221A7008E067
:109A1000054B07221A7004E0034B01221A7000E084
:109A200000BF00BF08BD00BF8829002000B587B077
:109A30000190009148F20E630593019B002B05D025
:109A4000634B00225A604FF40643BCE0009B1B7935
:109A5000032B00F2AB8001A252F823F06D9A0200B2
:109A60007B9A0200099B0200299B0200009B0122B5
:109A70001A71FFF797FA05909BE000238DF81330D9
:109A80000023ADF810302BE0BDF8102051491346EB
:109A90009B0013449B000B441B78022B1BD1BDF889
:109AA00010204C4913469B0013449B000B4400229A
:109AB0001A7001238DF81330BDF810204549134664
:109AC0009B0013449B000B4404331B681846FFF7AC
:109AD00081FA059008E0BDF810300133ADF8103080
:109AE000BDF81030012BCFD99DF8133083F001035E
:109AF000DBB2002B5CD0364B01221A70344B0022B3
:109B00005A6041F61D535EE0009B00221A71324BF1
:109B100002229A80304B1B681946002301222F48ED
:109B200001F036FC059044E0009B00221A712A4B9C
:109B30001B681846FFF74EFA0590294B5B88ADF875
:109B40000E30254B1B680293BDF80E2021491346A9
:109B50009B0013449B000B4404331B681E4A136094
:109B6000BDF80E201B4913469B0013449B000B4479
:109B70000433029A1A60BDF80E20174B98881549D5
:109B800013469B0013449B000B44083302461A8083
:109B9000114B02229A80BDF80E200E4913469B00FD
:109BA00013449B000B4400221A7002E000BF00E047
:109BB00000BF059B002B05D0054B00225A6048F2E0
:109BC0000D6300E00023184607B05DF804FB00BFFA
:109BD0002829002058290020802900206022002008
:109BE0008829002000B587B001900091009B9B8AD6
:109BF0001A4613469B0013449B003B4A13440493AC
:109C0000019B002B06D000990498FFF7ADF94FF4A3
:109C1000064364E0049B5A68049B1B899B00134421
:109C20000393009B9B7D062B4DD801A252F823F095
:109C3000759C0200999C0200819C02008D9C020090
:109C40004D9C0200A59C0200BF9C0200274B0022F5
:109C50005A60009B9B69254A136025492348FFF7FA
:109C6000BDFA034683F00103DBB2002B02D048F2B9
:109C7000096334E003990098FFF7D8FB059026E0CC
:109C800003990098FFF7F0FB059020E003990098F6
:109C9000FFF7BAFC05901AE003990098FFF70CFC57
:109CA000059014E0009B06229A75104B5B68104AE1
:109CB000128811461846FFF727FC059007E041F689
:109CC0001D53059303E048F20E63059300BF059B07
:109CD000002B03D000990498FFF746F9059B18461E
:109CE00007B05DF804FB00BF58290020A029002020
:109CF000AC29002000B585B001900091019B002B9C
:109D000002D04FF4064329E0009B1B79022B1BD0A5
:109D1000022B1DDC002B02D0012B08D018E0009B89
:109D200002221A710098FFF71BFC039015E00098BF
:109D3000FFF746FC0390039B48F2096293420BD164
:109D400041F61D53039307E041F61D53039304E0CE
:109D500048F20E63039300E000BF039B184605B072
:109D60005DF804FB00B585B00190019B002B02D08B
:109D70004FF406433DE0214B1B7B002B03D01F4BD0
:109D800000221A7301E0FFF719FE1C4B1B78013B00
:109D9000062B29D801A252F823F000BFB99D02007A
:109DA000C19D0200C99D0200D19D0200E99D0200F3
:109DB000D99D0200E19D0200FFF784FD039017E0AA
:109DC000FFF73CFD039013E0FFF70EFD03900FE05B
:109DD000FFF7D4FC03900BE0FFF74CFD039007E086
:109DE000FFF762FD039003E048F20E63039300BFA8
:109DF000039B184605B05DF804FB00BF88290020CE
:109E000000B589B00190404B1B68002B05D13F483D
:109E1000FFF7D4FA03463C4A13603B4B1B68002B08
:109E200004D13B4940F29E5006F0AEFE364B1B6813
:109E30001B78013B052B2CD801A252F823F000BF60
:109E4000599E0200699E0200699E0200799E0200EE
:109E5000799E0200899E02002B4B1B6819460198CF
:109E6000FFF7E4FD019018E0274B1B6819460198A5
:109E7000FFF7B8FE019010E0234B1B6819460198CC
:109E8000FFF738FF019008E00198FFF76BFF0190A2
:109E900003E048F20E63019300BF019B002B2BD01F
:109EA00003AB00221A605A609A60DA601A61019B63
:109EB00041F61D52934201D0019B00E00023049320
:109EC000114B1B6803AA11461846FEF705FF03ABAA
:109ED0001846FEF7E1FE0C4B00221A6000230193A6
:109EE0000A48FFF77BFAFFF787FA034683F001037E
:109EF000DBB2002B02D186E700BF00E000BF00BF4D
:109F000009B05DF804FB00BFB0290020B42900208F
:109F10001C7E030008B50121054800F01BFC034628
:109F2000002B02D10020FFF76BFF00BF08BD00BF70
:109F30003029002000B583B00190019B5B68184672
:109F4000FFF75EFF00BF03B05DF804FB00B58BB008
:109F50000390029101928DF803300023ADF8243074
:109F60000023ADF82630534B1B78DBB283F001039E
:109F7000DBB2002B02D048F2016397E0029B002B7A
:109F800002D148F2046391E0029B1B884FF6FF72F6
:109F9000934203D0029B5B88002B02D148F20363FB
:109FA00084E0029B5B681846FEF768FE034683F078
:109FB0000103DBB2002B02D048F2026376E0019B82
:109FC000002B11D1029B9B68ADF826300DF11A02CF
:109FD000BDF8263011461846FFF710F80890089B88
:109FE000002B09D0089B61E0019B1B88ADF81A305B
:109FF000019B5B88ADF8263005AB1846FFF7BAF930
:10A000000790079B002B0AD1BDF81A20BDF8263017
:10A0100011461846FFF75CF848F2076346E0079BD5
:10A020009DF803201A70079B00229A75BDF81A202C
:10A03000079B9A82029B5A68079B1A61FFF770F888
:10A040000246079BDA60029B1A88079B1A81029BD3
:10A050005A88079B9A80079BBDF82620DA809DF8D6
:10A060000330032B06D1079B04229A75039B1A68C1
:10A07000079B9A61079BBDF824205A8105AB1846BF
:10A08000FFF78EF9039B002B0DD0039B00225A6033
:10A09000079BDA68039B1A60039B00229A72064BA7
:10A0A0001A89039B1A81FFF735FF002318460BB06E
:10A0B0005DF804FB282900208829002000B585B020
:10A0C00001900091019B002B02D0009B002B02D13C
:10A0D00048F204632AE00DF10A0319460198FFF7DC
:10A0E0007DF80346002B1FD0019B5B680393BDF8EE
:10A0F0000A301A4613469B0013449B0008330D4A4E
:10A10000134404330121184600F03CFB009B039AE2
:10A110001A60019B5B6803F10C02009B5A60019B73
:10A1200001229A72002301E048F20963184605B043
:10A130005DF804FB5829002000B585B00190019B13
:10A14000002B02D148F204633BE00DF10A031946EB
:10A150000198FFF743F80346002B2ED0BDF80A30D4
:10A1600019461A4A0B469B000B449B0013440C33C0
:10A170001B68002B1DD0019B9B7A002B19D0BDF8CA
:10A180000A301A46114913469B0013449B000B44A6
:10A190000C331B68591E0D4813469B0013449B004B
:10A1A00003440C331960019B00229A72002303932D
:10A1B00006E048F20563039302E048F20963039363
:10A1C000039B184605B05DF804FB00BF582900202A
:10A1D00000B583B0019000910223002200990198FC
:10A1E000FFF7B4FE0346184603B05DF804FB00B564
:10A1F00083B001900091019B002B02D148F20463CF
:10A2000006E00323002200990198FFF79FFE034612
:10A21000184603B05DF804FB00B585B00346ADF801
:10A2200006301A4B1B78DBB283F00103DBB2002B44
:10A2300002D048F2016324E0BDF806304FF6FF7209
:10A24000934202D148F203631BE002AB1846FFF7CA
:10A2500091F80390039B002B02D148F2076310E0B2
:10A26000039B05221A70039B01221A71039BBDF800
:10A270000620DA8002AB1846FFF792F8FFF74AFE95
:10A280000023184605B05DF804FB00BF2829002014
:10A2900000B585B0029201930346ADF80E300B462F
:10A2A000ADF80C3003A90DF10E00019B029AFEF7E8
:10A2B000EFFF0346184605B05DF804FB00B585B016
:10A2C000034602910192ADF80E300DF10E01019B93
:10A2D000029A0020FEF7DCFF0346184605B05DF841
:10A2E00004FB00B585B0034602910192ADF80E3033
:10A2F0000DF10E00019B029A0021FEF7C9FF0346F3
:10A30000184605B05DF804FB82B001900091019BF6
:10A31000002B02D0009B002B02D148F2046304E022
:10A32000019B1A68009B1A600023184602B0704710
:10A3300086B001900091019B53E8011F8AB2D88931
:10A3400002449889824228BF121A1889824202BFA9
:10A35000BFF32F8F002307E0C2EA010243E8012088
:10A360000028E9D14FF001038DF80F3005900291DC
:10A370000492029A009B1A609DF80F30DBB21846D7
:10A3800006B0704784B00190019951E8013FC3EADB
:10A39000034341E80132002AF7D10392029300BF40
:10A3A00004B0704786B001900091019B53E8021FF2
:10A3B0001FFAA1F2D888824202BFBFF32F8F002379
:10A3C0000DE0D88902449889824228BF121AC1EA56
:10A3D000024243E802200028E8D14FF001038DF843
:10A3E0000F30059002910492029A009B1A609DF82A
:10A3F0000F30DBB2184606B0704784B00190019967
:10A4000051E8023FC3EA234341E80232002AF7D170
:10A410000392029300BF04B0704700B585B001906D
:10A420000091009B19460198FFF782FF0346002B1D
:10A4300007D0019B1B68009A128813440393039B67
:10A4400000E00023184605B05DF804FB00B583B0BA
:10A4500001900091009B1A88009B5B889A4204D16E
:10A460000198FFF78FFF012300E00023184603B097
:10A470005DF804FB00B585B001900091009B194682
:10A480000198FFF78FFF0346002B07D0019B1B6845
:10A49000009A528813440393039B00E0002318465C
:10A4A00005B05DF804FB00B583B001900091009BFE
:10A4B0001A88009B5B889A4204D10198FFF79DFFA0
:10A4C000012300E00023184603B05DF804FB00B54B
:10A4D00085B001900091009B5B099B00019A1A4492
:10A4E000009B03F01F03012101FA03F319461046F4
:10A4F00000F0E8F8039000BF05B05DF804FB00B57C
:10A5000083B001900091009B5B099B00019A1A4463
:10A51000009B03F01F03012101FA03F319461046C3
:10A5200000F0B8F80246009B03F01F0322FA03F381
:10A5300003F00103002B14BF01230023DBB21846F4
:10A5400003B05DF804FB00B585B001900091009B5D
:10A550005B099B00019A1A44009B03F01F03012131
:10A5600001FA03F3DB431946104600F0DBF80390D1
:10A5700000BF05B05DF804FB82B001900091009B24
:10A580005B099B00019A13441A68009B03F01F03A8
:10A5900022FA03F303F00103002B14BF012300236D
:10A5A000DBB2184602B0704700B58DB00190009143
:10A5B00000230B934BE00B9B9B00019A13441B68F9
:10A5C000DB430793079B93FAA3F30693069B089339
:10A5D000089B002B01D1202303E0089BB3FA83F3EF
:10A5E000DBB20A932BE00B9B5B010A9A134409939D
:10A5F000099A009B9A4226D209990198FFF77FFF9A
:10A60000034683F00103DBB2002B01D0099B26E057
:10A610000B9B9B00019A13441B68DB430493049B30
:10A6200093FAA3F30393039B0593059B002B01D19E
:10A63000202303E0059BB3FA83F3DBB20A930A9B62
:10A640001F2BD0D900E000BF0B9B01330B93009B65
:10A65000013B5B0901330B9A9A42ACD3009B18462D
:10A660000DB05DF804FB10B487B001900091019B20
:10A67000009A53E8004F104643E8000191F0000FA4
:10A68000F7D1059404900391059B184607B05DF837
:10A69000044B704710B487B001900091019B009A61
:10A6A00053E8004F44EA020043E8000191F0000F34
:10A6B000F6D1059404900391059B184607B05DF808
:10A6C000044B704710B487B001900091019B009A31
:10A6D00053E8004F44EA020043E8000191F0000F04
:10A6E000F6D1059404900391049B184607B05DF8D9
:10A6F000044B704710B487B001900091019B009A01
:10A7000053E8004F04EA020043E8000191F0000F13
:10A71000F6D1059404900391059B184607B05DF8A7
:10A72000044B704710B487B001900091019B009AD0
:10A7300053E8004F04EA020043E8000191F0000FE3
:10A74000F6D1059404900391049B184607B05DF878
:10A75000044B704710B487B001900091019B009AA0
:10A7600053E8004F04EB020043E8000191F0000FB2
:10A77000F6D1059404900391059B184607B05DF847
:10A78000044B704710B487B001900091019B009A70
:10A7900053E8004F04EB020043E8000191F0000F82
:10A7A000F6D1059404900391049B184607B05DF818
:10A7B000044B704710B487B001900091019B009A40
:10A7C00053E8004FA4EB020043E8000191F0000FB2
:10A7D000F6D1059404900391049B184607B05DF8E8
:10A7E000044B704700B583B0019001210198FFF739
:10A7F00069FF0346184603B05DF804FB00B583B05B
:10A80000019000210198FFF775FF0346184603B039
:10A810005DF804FB00B583B001900B468DF8033062
:10A82000019B002B03D10849E82006F0ADF9019BFC
:10A83000DA689DF803300199098A01FB03F3134498
:10A84000184603B05DF804FB9C7E030000B583B09E
:10A8500001900091019B002B03D10849F52006F0DF
:10A8600093F9009B019AD2689B1A019A128AB3FB52
:10A87000F2F3DBB2184603B05DF804FB9C7E0300E4
:10A8800000B585B00190019B002B01D10E234CE057
:10A89000019B1B68002B03D12649FF2006F074F9A9
:10A8A000019B5B68002B04D122494FF4807006F0B5
:10A8B0006BF9019B9B68002B04D11E4940F20110EB
:10A8C00006F062F9019BDB68002B04D119494FF4B3
:10A8D000817006F059F9019B1B8A002B04D11549A0
:10A8E00040F2031006F050F9019B9A68019B5B68E7
:10A8F000D31A8DF80F30019B1B68019A52681A60B9
:10A9000007E0019B1A681368591C11609DF80F201D
:10A910001A709DF80F305A1E8DF80F20002BF0D1C1
:10A92000019B1B6800221A710023184605B05DF8D0
:10A9300004FB00BF9C7E030000B585B00190019B25
:10A94000002B04D11F494FF4927006F01DF900232B
:10A95000039300238DF80A300DF10A031846FEF721
:10A96000F3F8019B1B681A68019B5B689A421FD928
:10A97000019B1B681A68013A1A601B681B7819460C
:10A980000198FFF747FF0390019B9A68019B1B68A2
:10A990001B68D31A8DF80B30019B1B681B799DF83F
:10A9A0000B209A4204D9019B1B689DF80B201A7159
:10A9B0009DF80A301846FEF7DDF8039B184605B0EF
:10A9C0005DF804FB9C7E030010B584B001900091FB
:10A9D000019B002B04D1154940F2471006F0D4F832
:10A9E000009B002B04D111494FF4A47006F0CCF861
:10A9F000009B039300238DF80B300DF10B031846D9
:10AA0000FEF7A2F8019B1B681C68621C1A60039980
:10AA10000198FFF71BFF034623709DF80B30184683
:10AA2000FEF7A8F800BF04B010BD00BF9C7E030075
:10AA300000B583B00190019B002B03D10C4931205C
:10AA400006F0A2F8019B9B68002B0CD0019B5B6970
:10AA5000019A1069019A1168019A92689847019BBE
:10AA600000229A6000E000BF03B05DF804FB00BF65
:10AA7000107F03000EB400B584B00190019B002B41
:10AA800003D11849422006F07FF8019B5B69002B37
:10AA900003D11449432006F077F8019B1B68002B73
:10AAA00003D11049442006F06FF8019B5B68002B2E
:10AAB00003D10C49452006F067F8059B002B0AD00E
:10AAC0000023039306AB039303AB1A460599019841
:10AAD00000F0B8F900E000BF04B05DF804EB03B08B
:10AAE000704700BF107F030000B583B001900B4694
:10AAF0008DF803309DF803300A2B03D10D21019806
:10AB0000FFF7F2FF019B1A68019B9B68581C019993
:10AB1000886013449DF803201A70019B9A68019B7A
:10AB20005B689A4202D30198FFF782FF00BF03B02F
:10AB30005DF804FB00B587B0039002910192009389
:10AB400000230593009B03F00103002B24D00BE0AE
:10AB5000029B01330293059B013305939DF813304B
:10AB600019460398FFF7C0FF029B1B788DF813303E
:10AB70009DF81330002BEBD106E0019B013B0193C4
:10AB800020210398FFF7B0FF019A059B9A422ED926
:10AB9000019B002BF1D12AE0029B002B0BD00298E5
:10ABA0000CF0ECFD059006E0019B013B0193202198
:10ABB0000398FFF799FF019A059B9A420FD9019BD1
:10ABC000002BF1D10BE0029B01330293059B013373
:10ABD00005939DF8133019460398FFF785FF029BF4
:10ABE0001B788DF813309DF81330002BEBD100BF8C
:10ABF00007B05DF804FB000000B589B00390029136
:10AC000001920093029B07930123069307E0079AA2
:10AC1000019BB2FBF3F30793069B01330693079A5C
:10AC2000019B9A42F3D2009A069B9A4201D9009B5B
:10AC300006930B9B03F00103002B22D10A9B002BF0
:10AC40001FD00B9B03F00203002B06D0009B002BB0
:10AC500003D130238DF8173002E020238DF8173010
:10AC600008E00A9B013B0A939DF8173019460398A8
:10AC7000FFF73AFF0A9B002B03D0069A0A9B9A42E1
:10AC8000EFD301230793009B012B03D9009B013BCA
:10AC9000009309E0029A079BB2FBF3F30493049A32
:10ACA000019B9A4200D205E0079B019A02FB03F345
:10ACB0000793E8E7029A079BB2FBF3F30493049B24
:10ACC000079A02FB03F3029AD31A0293154A049BD4
:10ACD00013441B7819460398FFF706FF079A019B58
:10ACE000B2FBF3F30793079B002BE3D10B9B03F01D
:10ACF0000103002B11D00A9B002B0ED006E00A9B0B
:10AD0000013B0A9320210398FFF7EEFE0A9B002BDC
:10AD100003D0069A0A9B9A42F1D300BF09B05DF8AE
:10AD200004FB00BFEC7F030000B589B005900491DF
:10AD300003920293049B002BB8BF5B42069301234E
:10AD4000079307E0039B069A92FBF3F30693079B96
:10AD500001330793039B069A9A42F3DA029A079B00
:10AD60009A4201D9029B07930A9B002B0AD0049BAD
:10AD7000002B04DB0B9B03F00403002B02D00A9B87
:10AD8000013B0A930B9B03F00203002B02D0029BB2
:10AD9000002B16D00B9B03F00103002B11D10A9B53
:10ADA000002B0ED006E00A9B013B0A932021059858
:10ADB000FFF79AFE0A9B002B03D0079A0A9B9A4240
:10ADC000F1D3049B002B07DA049B5B4204932D21F3
:10ADD0000598FFF789FE08E00B9B03F00403002BA6
:10ADE00003D02B210598FFF77FFE0B9B03F0020396
:10ADF000002B19D00B9B03F00103002B14D1029BF5
:10AE0000002B11D10A9B002B0ED006E00A9B013BC0
:10AE10000A9330210598FFF767FE0A9B002B03D0A9
:10AE2000079A0A9B9A42F1D304990B9B01930A9BC0
:10AE30000093029B039A0598FFF7DEFE00BF09B05E
:10AE40005DF804FB00B58FB0059004910392059B5B
:10AE5000002B04D1AD4940F2522005F095FE059B30
:10AE60005B69002B04D1A9494FF4157005F08CFEE5
:10AE7000059B1B68002B04D1A44940F2552005F026
:10AE800083FE059B5B68002B04D1A04940F256204D
:10AE900005F07AFE049B002B00F09381049B1B7845
:10AEA0008DF83730049B013304939DF83730002B25
:10AEB00000F07E819DF83730252B40F06D81002316
:10AEC0000A9301230C93049B1B788DF837309DF86F
:10AED0003730302B0DD0302B1BDC2B2B11D02D2BF2
:10AEE00017D10A9B43F001030A93049B0133049397
:10AEF00012E00A9B43F002030A93049B013304937C
:10AF00000AE00A9B43F004030A93049B0133049371
:10AF100002E000230C9300BF0C9B002BD3D1002335
:10AF200009939DF837302A2B0CD1039B1B68191D00
:10AF3000039A11601B68099A13440993049B013317
:10AF400004931AE0049B1B788DF837309DF8373056
:10AF50002F2B12D99DF83730392B0ED8049B013393
:10AF60000493099A13469B0013445B001A469DF80C
:10AF700037301344303B0993D3E700230B93049BF2
:10AF80001B788DF837309DF837302E2B1DD1049B60
:10AF900001330493049B1B788DF837309DF83730CC
:10AFA0002F2B12D99DF83730392B0ED8049B013343
:10AFB00004930B9A13469B0013445B001A469DF8BA
:10AFC00037301344303B0B93E4E7049B1B788DF838
:10AFD00037309DF837306C2B03D09DF83730682B15
:10AFE00007D1049B01330493049B1B788DF8373001
:10AFF000EFE79DF83730252B00F0C480252BC0F2F9
:10B00000C680782B00F3C380582BC0F2C080583B19
:10B01000202B00F2BC8001A252F823F011B10200F3
:10B020008FB102008FB102008FB102008FB1020018
:10B030008FB102008FB102008FB102008FB1020008
:10B040008FB102008FB10200A1B00200C3B00200B4
:10B050008FB102008FB102008FB102008FB10200E8
:10B06000C3B002008FB102008FB102008FB10200A5
:10B070008FB102008FB102008FB1020051B1020006
:10B080008FB102008FB1020035B102008FB1020012
:10B09000E7B002008FB102008FB1020011B10200CF
:10B0A000039B1B68191D039A11601B680C930C9B72
:10B0B0008DF81F309DF81F3019460598FFF714FDD5
:10B0C00066E0039B1B68191D039A11601B680C93B3
:10B0D0000A9B0193099B00930B9B0A220C990598EC
:10B0E000FFF722FE54E0039B1B68191D039A1160B1
:10B0F0001B680C930C990A9B0193099B00930B9B73
:10B100000A220598FFF778FD42E000BF7C7F03002C
:10B11000039B1B68191D039A11601B680C930C9903
:10B120000A9B0193099B00930B9B10220598FFF744
:10B1300063FD2DE0039B1B68191D039A11601B68BA
:10B1400008930A9B099A08990598FFF7F3FC1FE0FA
:10B15000039B1B68191D039A11601B680C93302117
:10B160000598FFF7C1FC78210598FFF7BDFC0C9905
:10B170000023019308230093082310220598FFF76A
:10B180003BFD05E025210598FFF7AEFC00E000BF80
:10B19000049B0133049305E09DF837301946059868
:10B1A000FFF7A2FC049B1B78002B7FF477AE00E036
:10B1B00000BF059B1B7B002B04D00598FFF738FCD4
:10B1C00000E000BF0FB05DF804FB00BF10B586B013
:10B1D0000590049103920293059B002B10D1604AC5
:10B1E000604BD31ADB081B0443F001005E4A5F4941
:10B1F0000E2300930B465E49FCF709FE0E23ABE0DD
:10B20000039B002B10D1564A564BD31ADB081B0464
:10B2100043F00100574A55490E2300930B46544909
:10B22000FCF7F5FD0E2397E0059B1B68002B10D162
:10B230004B4A4C4BD31ADB081B0443F001004E4A27
:10B240004A49082300930B464949FCF7E0FD0823CF
:10B2500082E0029B002B10D1414A424BD31ADB08FB
:10B260001B0443F00100454A4049092300930B4663
:10B270003F49FCF7CCFD09236EE0059B5B685A68EB
:10B28000029BB3FBF2F101FB02F29B1A002B10D0E0
:10B29000334A344BD31ADB081B0443F00100384A0D
:10B2A0003249092300930B463149FCF7B0FD0923CD
:10B2B00052E0049800F01EF90346002B10D1284AF2
:10B2C000284BD31ADB081B0443F001002D4A274901
:10B2D000102300930B462649FCF799FD10233BE011
:10B2E000039B184600F006F90346002B10D11C4AB8
:10B2F0001C4BD31ADB081B0443F00100224A1B49F4
:10B30000102300930B461A49FCF781FD102323E01C
:10B31000029A0499059800F0D3F80346002B10D147
:10B320000F4A104BD31ADB081B0443F00100174AE5
:10B330000E49102300930B460D49FCF768FD1023BE
:10B340000AE0059B1B68DC68089B0093029B039A3C
:10B3500004990598A0470346184606B010BD00BFE3
:10B36000C0780300687803000C800300B0810300FC
:10B3700014800300A0800300488003005C80030069
:10B38000A8800300D4800300EC8003001081030038
:10B3900010B586B00590049103920293059B002B93
:10B3A00010D13E4A3E4BD31ADB081B0443F0010088
:10B3B0003C4A3D490E2300930B463C49FCF727FDD0
:10B3C0000E2368E0059B1B68002B10D1334A344BD9
:10B3D000D31ADB081B0443F00100354A3249082325
:10B3E00000930B463149FCF712FD082353E0039B01
:10B3F000002B10D1294A2A4BD31ADB081B0443F037
:10B4000001002C4A2849092300930B462749FCF7E1
:10B41000FEFC09233FE00499059800F078F8034604
:10B42000002B10D11D4A1E4BD31ADB081B0443F01E
:10B430000100214A1C49102300930B461B49FCF7CD
:10B44000E6FC102327E0059B5B681B68039A02FB60
:10B4500003F31A460499059800F032F80346002BCE
:10B4600010D10E4A0E4BD31ADB081B0443F0010027
:10B47000124A0D49102300930B460C49FCF7C7FCF8
:10B48000102308E0059B1B681C69029B039A049922
:10B490000598A0470346184606B010BDC0780300C3
:10B4A000687803000C800300C4810300148003004B
:10B4B000488003005C800300388103006081030042
:10B4C00084B0039002910192039BDB68029A9A4236
:10B4D00009D3029A019B13445A1E039B1B699A428B
:10B4E00001D8012300E0002303F00103DBB218467A
:10B4F00004B0704782B00190019B03F00303002B5E
:10B500000CBF01230023DBB2184602B0704782B0A3
:10B5100001900091019B5B681B685A1E009B1340C1
:10B52000002B0CBF01230023DBB2184602B070478A
:10B5300029DF704700BF184628DF704700BF184654
:10B5400000B589B001900091019B1B689B68002B9E
:10B5500035D002AB00221A605A609A60DA601A6134
:10B560005A61009B0393019B9B680793019B1B7986
:10B57000002B02D0012B0DD01AE001238DF80830EA
:10B58000019B1B690493019BDB680593019B5B692D
:10B5900006930DE002238DF80830019BDB684FF421
:10B5A000805202FB03F30493019B5B69069300BF87
:10B5B000019B1B689B6802AA1046984700E000BFE9
:10B5C00009B05DF804FB00B587B00190019B5A6992
:10B5D000019B9B69D31AB3F5805F28BF4FF480535A
:10B5E00005930422059BB3FBF2F3012B38BF012323
:10B5F0000593019B1A69019B9B6913440493019B6A
:10B60000DB681A46019B9B6913440393059A0399CF
:10B610000498FFF78DFF0346184607B05DF804FB5A
:10B6200000B583B00190019BDA68019B1B6913444C
:10B630001846FFF781FF0346184603B05DF804FB88
:10B6400008B5034B03491846FEF72DFF00BF08BDA0
:10B65000B8290020E029002008B5084B0849184601
:10B66000FEF708FF0346074A1360064B1B68002BD2
:10B6700014BF01230023DBB2184608BDB8290020FF
:10B68000E0290020DC29002000B583B02A4B1B7A7A
:10B69000002B0BD1FFF7E0FF034683F00103DBB281
:10B6A000002B03D0244B00225A6042E0224B02229E
:10B6B0001A72224B1B681B79002B02D0012B07D07A
:10B6C0000DE01E4B1B681846FFF77DFF019009E057
:10B6D0001A4B1B681846FFF7A3FF019002E00323F3
:10B6E000019300BF019B002B03D0019B112B0CD0B9
:10B6F0000FE0114B1B7C83F00103DBB2002B17D052
:10B700000021022000F06EF812E00B4B01221A72A9
:10B710000FE00A4B1B6803211846FFF711FF064B89
:10B7200000221A72044B00225A60FFF789FF00E0E2
:10B7300000BF03B05DF804FBC8290020DC2900200D
:10B7400084B001901B4B0022DA60019B1B79002B17
:10B7500002D0012B19D028E0019B5A69019B9B69FB
:10B76000D31AB3F5805F28BF4FF480530393019B36
:10B770009A69039B1A44019B9A61019B9A69019BF8
:10B780005B699A420ED1012310E0019B1B695A1C90
:10B79000019B1A61019B1A69019B5B699A4203D163
:10B7A000012303E000BF00E000BF0023184604B0FF
:10B7B000704700BFC829002082B00190084BDB68A9
:10B7C0000133074AD360064BDB68082B04D9044BCE
:10B7D0000022DA60012300E00023184602B070471F
:10B7E000C829002000B585B001900091019B022B73
:10B7F00002D0019B032B48D1274B1B7A022B05D08B
:10B80000022B35DC002B42D0012B31E000238DF8D8
:10B810000F30019B022B03D0019B032B09D011E0B9
:10B820001E4B1B681846FFF78BFF03468DF80F3041
:10B8300008E01A4B1B681846FFF7BEFF03468DF859
:10B840000F3000BF9DF80F30002B10D0124B00229C
:10B850001A72124B1A68019B022B01D1002300E0DF
:10B860000D2319461046FFF76BFEFFF7E9FE00BFF8
:10B87000094B5B7C83F00103DBB2002B02D0FFF7A6
:10B8800003FF05E00BF01AFD02E000BF00E000BF7F
:10B8900005B05DF804FB00BFC8290020DC290020AA
:10B8A00082B0034600918DF80730064B01225A748E
:10B8B000044B1B7A002B0CBF01230023DBB218467C
:10B8C00002B07047C829002000B583B0034600913C
:10B8D0008DF807309DF80730012B03D09DF8073015
:10B8E000032B0DD1084B00225A749DF80730012B11
:10B8F0000CBF01230023DAB2034B1A74FFF7C4FE16
:10B9000000BF03B05DF804FBC829002000B583B078
:10B9100001900198FEF7B4FF0346184603B05DF8A6
:10B9200004FB00B58BB001900091019B1B8A043B86
:10B930000793009A079B1344DA1C079BB2FBF3F3AF
:10B940008DF81B300198FEF7F7FF0590059B002B43
:10B9500001D1002338E0059B00221A71059B0122CA
:10B960005A71079B9AB2059BDA80059B09939DF853
:10B970001B30013B0493099B019A1A600023089332
:10B980001DE00198FEF7D8FF0390039B002B0ED01B
:10B99000059B5B790133DAB2059B5A71099B039AC7
:10B9A0001A60039B019A1A60039B099304E00598AF
:10B9B00000F00EF8002307E0089B01330893089A73
:10B9C000049B9A42DDD3059B18460BB05DF804FB3F
:10B9D00000B58BB00190019B0793079B5B798DF8B5
:10B9E0001B30019B08939DF81B30013B05930023FE
:10B9F000099305E0089B1B680893099B0133099391
:10BA0000099A059B9A42F5D3089B1B680493019BF6
:10BA10000893002309930BE0089B1B680393089984
:10BA20000498FEF7D1FF039B0893099B0133099308
:10BA30009DF81B30099A9A42EED300BF00BF0BB0AD
:10BA40005DF804FB00B585B00190019B0393039B57
:10BA5000043301211846FEF795FE00BF05B05DF8DE
:10BA600004FB00B587B00190019B0593059B04334F
:10BA700001211846FEF79EFE0346039303AB049391
:10BA8000049B1B78002B02D10198FFF7A1FF00BF98
:10BA900007B05DF804FB000000B591B0039002917F
:10BAA00001920093039B002B03D14349B62005F07C
:10BAB0006BF8039B0993039B0F93099BDB881A4642
:10BAC000099B5B7902FB03F3043B0893009A089BF4
:10BAD0009A4203D33849C42005F056F8099BDB8805
:10BAE0000793009B1A1D079BB2FBF3F30E93009B79
:10BAF0000433079AB3FBF2F2079901FB02F29B1A97
:10BB00000D93019B1A68009B1344089A9A4203D232
:10BB1000089A009BD31A01E0019B1B680C93019BC0
:10BB20000C9A1A6005E00F9B1B680F930E9B013B5C
:10BB30000E930E9B002BF6D100230B93079A0D9BBF
:10BB4000D31A0A930A9A0C9B934228BF13460A936E
:10BB50002AE0029A0B9B134406930F9A0D9B134401
:10BB6000043305939DF84830002B05D00A9A0599B7
:10BB700006980BF0A7FD04E00A9A069905980BF0C9
:10BB8000A1FD00230D930F9B1B680F930C9A0A9B3A
:10BB9000D31A0C930B9A0A9B13440B93079A0C9B92
:10BBA000934228BF13460A930C9B002BD1D100BFB0
:10BBB00000BF11B05DF804FBD881030000B589B067
:10BBC0000590049103920293039B079307AA002315
:10BBD0000093029B04990598FFF75EFF079B039A69
:10BBE0009A4203D00349F62004F0CEFF00BF09B00B
:10BBF0005DF804FBD881030000B589B0059004917D
:10BC000003920293039B079307AA01230093029BCD
:10BC100004990598FFF740FF079B039A9A4204D0C6
:10BC200004494FF4807004F0AFFF00BF09B05DF825
:10BC300004FB00BFD881030082B00190019B9B6888
:10BC400000229A60019B9B6800221A61019B9B68FD
:10BC500000225A61019B9B680022DA60019B9B686D
:10BC600000225A60019B9B6800221A6000BF02B04C
:10BC70007047000000B583B001900091019B002B3C
:10BC800003D11049502004F07FFF009B002B03D10B
:10BC90000C49512004F078FF019B009A1A60019B27
:10BCA0001B681A68019B5A60019B5A68019B1B68BC
:10BCB0005B689A4202D1019B00225A6000BF03B028
:10BCC0005DF804FB8483030000B583B00190019B01
:10BCD000002B03D11449632004F056FF019B1B681D
:10BCE000002B03D11049642004F04EFF019B5B68D8
:10BCF000002B14D0019B5B681A46019B1B689B6854
:10BD000013441A46019B5A60019B5A68019B1B68A9
:10BD10005B689A4204D1019B00225A6000E000BF98
:10BD200003B05DF804FB00BF8483030000B585B059
:10BD30000190019800F00EF80390039B002B01D0B6
:10BD4000039B00E0024B184605B05DF804FB00BF02
:10BD50009484030086B00190164B0593164B049310
:10BD60001FE0049A059BD31ADB10DA0F13445B1013
:10BD7000DB00059A13440393039B1B680293029A0A
:10BD8000019B9A4202D9039B04930AE0029A019B09
:10BD90009A4203D2039B0833059302E0039B5B683E
:10BDA00004E0059A049B9A42DBD30023184606B0B0
:10BDB000704700BF94880300BC890300BFF34F8F16
:10BDC00000BF064BDB6803F4E0620449044B1343F5
:10BDD000CB60BFF34F8F00BF00BFFDE700ED00E079
:10BDE0000400FA0582B0124B1B680193114B1B68CB
:10BDF0000093019B082B17D1009B032B12D801A2A3
:10BE000052F823F015BE020019BE02001DBE02004A
:10BE100021BE0200012308E0012306E0012304E023
:10BE2000012302E0012300E00023184602B070471E
:10BE3000300100103401001082B0124B1B680193D6
:10BE4000114B1B680093019B082B17D1009B032B00
:10BE500012D801A252F823F069BE02006DBE0200A2
:10BE600071BE020075BE0200012308E0012306E056
:10BE7000012304E0012302E0012300E0002318462F
:10BE800002B07047300100103401001082B0124B34
:10BE90001B680193114B1B680093019B082B17D162
:10BEA000009B032B12D801A252F823F0BDBE020062
:10BEB000C1BE0200C5BE0200C9BE0200012308E0E7
:10BEC000002306E0002304E0002302E0002300E05A
:10BED0000023184602B070473001001034010010F2
:10BEE00082B0124B1B680193114B1B680093019B9E
:10BEF000082B17D1009B032B12D801A252F823F074
:10BF000011BF020015BF020019BF02001DBF0200D1
:10BF1000012308E0002306E0002304E0002302E000
:10BF2000002300E00023184602B0704730010010E3
:10BF30003401001082B0124B1B680193114B1B6837
:10BF40000093019B082B17D1009B032B12D801A251
:10BF500052F823F065BF020069BF02006DBF020006
:10BF600071BF0200012308E0002306E0002304E083
:10BF7000002302E0002300E00023184602B07047CF
:10BF8000300100103401001082B0124B1B68019385
:10BF9000114B1B680093019B082B17D1009B032BAF
:10BFA00012D801A252F823F0B9BF0200BDBF0200AF
:10BFB000C1BF0200C5BF0200012308E0002306E064
:10BFC000002304E0002302E0002300E000231846E1
:10BFD00002B07047300100103401001082B0124BE3
:10BFE0001B680193114B1B680093019B082B17D111
:10BFF000009B032B12D801A252F823F00DC00200BF
:10C0000011C0020015C0020019C00200012308E09F
:10C01000012306E0012304E0012302E0012300E004
:10C020000023184602B070473001001034010010A0
:10C03000024B034A1A6000BF704700BFD4220020A1
:10C040000090D00308B5FFF7CDFE0346002B0ED0BD
:10C050004FF080430022C3F80C214FF080430022B0
:10C06000C3F810214FF080430022C3F83825FFF7B2
:10C07000E3FE0346002B76D04FF080537D4AD3F881
:10C080000434C2F820354FF080537A4AD3F808348C
:10C09000C2F824354FF08053764AD3F80C34C2F8F6
:10C0A00028354FF08053734AD3F81034C2F82C353A
:10C0B0004FF080536F4AD3F81434C2F830354FF044
:10C0C00080536C4AD3F81834C2F834354FF080539B
:10C0D000684AD3F81C34C2F840354FF08053654AA3
:10C0E000D3F82034C2F844354FF08053614AD3F876
:10C0F0002434C2F848354FF080535E4AD3F82834D0
:10C10000C2F84C354FF080535A4AD3F82C34C2F859
:10C1100050354FF08053574AD3F83034C2F8543575
:10C120004FF08053534AD3F83434C2F860354FF09F
:10C130008053504AD3F83834C2F864354FF08053F6
:10C140004C4AD3F83C34C2F868354FF08053494A22
:10C15000D3F84034C2F86C354FF08053454AD3F8D9
:10C160004434C2F87035FFF791FE0346002B02D02D
:10C17000414B424A1A60FFF7B3FE0346002B03D03F
:10C180003F4BFB22C3F81825FFF7D4FE0346002BD4
:10C190000AD03C4B1B6823F00F023B4B1B6803F09B
:10C1A0000F03384913430B60FFF7EEFE0346002BE5
:10C1B00003D0364B4FF400721A60FFF70FFF0346AF
:10C1C000002B0DD04FF08043D3F8003403F001036F
:10C1D000002B05D04FF080436FF00102C3F800241C
:10C1E0002B4BD3F888302A4A43F47003C2F88830C6
:10C1F000BFF34F8F00BFBFF36F8F00BF4FF010230F
:10C20000D3F80032002B05DB4FF01023D3F80432B3
:10C21000002B2BDA1F4B0122C3F8042500BF1D4B56
:10C22000D3F80034002BFAD04FF010231222C3F8B9
:10C23000002200BF174BD3F80034002BFAD04FF088
:10C2400010231222C3F8042200BF124BD3F800348B
:10C25000002BFAD00F4B0022C3F8042500BF0D4B72
:10C26000D3F80034002BFAD0FFF7A8FDFFF7E0FE6B
:10C2700000BF08BD00C000408C560040488103004C
:10C2800000F00040E40E00405802001040960240CA
:10C2900000ED00E000E0014000B583B00190019B9B
:10C2A0001B68184600F0ABF80346002B04D10B497D
:10C2B0004FF4F67004F068FC019B1B681F2B02D83A
:10C2C0004FF0A04306E0019B1B6803F01F02019B97
:10C2D0001A60034B184603B05DF804FBBC890300E9
:10C2E0000003005000B585B0019001AB1846FFF780
:10C2F000D3FF0390019B012202FA03F3194603982E
:10C3000000F069F800BF05B05DF804FB00B585B02A
:10C31000019001AB1846FFF7BFFF0390019B01227C
:10C3200002FA03F31946039800F05FF800BF05B066
:10C330005DF804FB00B585B0019001AB1846FFF72E
:10C34000ABFF0390039BD3F804350293029BDA43BF
:10C35000019B012101FA03F31A40039BC3F808254E
:10C36000019B01229A40029B1A40039BC3F80C25B3
:10C3700000BF05B05DF804FB00B583B001900091EB
:10C38000009B002B03D10198FFF7C0FF02E001984A
:10C39000FFF7A8FF00BF03B05DF804FB00B585B050
:10C3A000019001AB1846FFF777FF0390039800F068
:10C3B0000AF80246019B22FA03F303F00103184630
:10C3C00005B05DF804FB82B00190019BD3F8043501
:10C3D000184602B0704782B001900091019B009A0C
:10C3E000C3F8082500BF02B0704782B001900091E9
:10C3F000019B009AC3F80C2500BF02B0704784B0BF
:10C400000190019B5B09029300230393029B002B85
:10C4100003D0029B012B04D007E04FF0FF330393BE
:10C4200003E04FF6FF73039300BF019B03F01F036C
:10C430000193039A019B22FA03F303F00103002BFB
:10C4400014BF01230023DBB2184604B0704700007C
:10C4500000B585B00190019B032B03D911493A2007
:10C4600004F092FB104A019B13441B781846FFF717
:10C4700095FF0346002B14BF012300238DF80F30D6
:10C480009DF80F30002B14BF01230023DBB283F093
:10C490000103DBB203F00103DBB2184605B05DF81F
:10C4A00004FB00BFFC890300648A030000B583B06D
:10C4B0000190019B032B03D90749412004F064FB41
:10C4C000064A019B13441B7800211846FFF754FFCE
:10C4D00000BF03B05DF804FBFC890300648A03001D
:10C4E00000B583B00190019B032B03D90749472076
:10C4F00004F04AFB064A019B13441B7801211846AD
:10C50000FFF73AFF00BF03B05DF804FBFC890300AE
:10C51000648A030000B583B00023019305E001980D
:10C52000FFF7DEFF019B01330193019B032BF6D93B
:10C5300000BF00BF03B05DF804FB00B583B000236B
:10C54000019305E00198FFF7B1FF019B01330193CF
:10C55000019B032BF6D900BF00BF03B05DF804FBBD
:10C5600000B583B00190019B032B03D907495F20DD
:10C5700004F00AFB064A019B13441B781846FFF798
:10C58000D9FE00BF03B05DF804FB00BFFC890300C7
:10C59000648A030082B003468DF807309DF90730A6
:10C5A000002B13DB9DF8073003F01F0209499DF9AA
:10C5B00007305B09012000FA02F2203341F8232002
:10C5C000BFF34F8F00BFBFF36F8F00BF00BF02B03C
:10C5D000704700BF00E100E0044BD3F80034002BAB
:10C5E00014BF01230023DBB218467047000001404E
:10C5F00008B50AF07FFE034683F00103DBB2002B8F
:10C6000003D109497B2004F0BFFAFFF7E5FF034699
:10C6100083F00103DBB2002B04D000F04FFB034B8F
:10C6200000229A7000BF08BD708A0300E429002030
:10C6300000B583B000230193184B1B78002B02D068
:10C64000852301931CE0154B00229A60134B0022B6
:10C650005A60124B00221A61104B0022DA60104817
:10C6600000F0F2FA01900AF045FE034683F0010360
:10C67000DBB2002B01D000F00DFB084B01221A7039
:10C68000FFF7AAFF0346002B02D0044B01229A7049
:10C69000019B184603B05DF804FB00BFE4290020AD
:10C6A00079C7020084B00190019B1B680393039B30
:10C6B000002B03D0039B1A68019B1A60039B18464A
:10C6C00004B0704700B583B0164B1B78002B04D123
:10C6D000154940F2171004F057FA124BDB68002B93
:10C6E00004D111494FF48C7004F04EFA00238DF8F8
:10C6F00007300DF107031846FCF726FA094BDB68F3
:10C70000013B084AD360074BDB68002B01D1FFF7E0
:10C710006FFF9DF807301846FCF72CFA00BF03B0F6
:10C720005DF804FBE4290020708A030000B585B0A1
:10C7300003468DF807309DF80730002B02D10C4BD3
:10C74000039301E00B4B03930398FFF7ABFF0290B9
:10C75000029B002B06D0029B5B689DF807201046C9
:10C760009847F1E700BF00BF05B05DF804FB00BFCC
:10C77000EC290020F429002000B583B003468DF891
:10C7800007309DF80730002B05D10A4B01225A7063
:10C790000020FFF7CBFF9DF80730012B05D1054B9B
:10C7A00001229A700120FFF7C1FF00BF03B05DF8BE
:10C7B00004FB00BFE429002000B583B00190009184
:10C7C000019B002B05D1054B01225A700020FFF779
:10C7D000ADFF00BF03B05DF804FB00BFE4290020FB
:10C7E00000B585B0034600918DF807309DF80730FD
:10C7F000032B29D0032B35DC002B02D0012B04D0D6
:10C8000030E00020FFF7C6FE2DE000238DF80F304A
:10C810000DF10F031846FCF797F9154B1B7883F0C1
:10C820000103DBB2002B01D0FFF702FF104BDB68E6
:10C8300001330F4AD3600E4B01229A709DF80F30DE
:10C840001846FCF797F90EE0094B1B78002B04D132
:10C85000084940F2522004F097F900F01BFAFFF764
:10C8600031FF00E000BF00BF05B05DF804FB00BF72
:10C87000E4290020708A030000B589B0019000917E
:10C88000009B0793019B1B788DF80C30019B5B6824
:10C890000493019B9B68DBB28DF81430019BDB682D
:10C8A0000693074A079B52F823300649079A51F826
:10C8B000221003AA1046984700BF09B05DF804FB98
:10C8C000F8290020002A002000B589B001900091CD
:10C8D000009B0793019B1B788DF80C30019B5B68D4
:10C8E0000493019B9B68DBB28DF81430019BDB68DD
:10C8F0000693074A079B52F823300649079A51F8D6
:10C90000221003AA1046984700BF09B05DF804FB47
:10C91000F8290020002A002030B58FB00390029142
:10C920000192039B1B780C932C490C9B019A41F8B4
:10C930002320029B1A692A490C9B41F823200C9B57
:10C94000012B07D1029B5B7F002B03D12549762069
:10C9500004F01AF9029B5B7F1946234A0C9B13448F
:10C960000A461A70029B04AC1D460FCD0FC495E811
:10C970000F0084E80F000C9B089300230D93039B8A
:10C980001B781A46184B9B5C002B0DD0039B181D7F
:10C99000019B002B01D0154A00E0002204AB194690
:10C9A00001F028FF0D9014E0039B1B781A460E4BF4
:10C9B0009B5C002B0DD1039B03F10C00019B002B12
:10C9C00001D00B4A00E0002204AB194601F08AF8BE
:10C9D0000D900D9B18460FB030BD00BFF829002008
:10C9E000002A0020E48A0300082A002079C80200F7
:10C9F000C9C8020082B003468DF807309DF90730A0
:10CA0000002B0CDB9DF8073003F01F0205499DF950
:10CA100007305B09012000FA02F241F8232000BF31
:10CA200002B0704700E100E082B0034600918DF84B
:10CA300007309DF90730002B0ADB009BDAB20C4966
:10CA40009DF907305201D2B20B4483F800230BE06A
:10CA5000009BDAB207499DF8073003F00F03043B4F
:10CA60005201D2B20B441A7600BF02B0704700BF29
:10CA700000E100E000ED00E082B00190019B1B0BA3
:10CA80005BB2184602B0704700B583B003460A4651
:10CA90008DF8073013468DF806309DF80630012BCF
:10CAA00003D99DF80630032B0BD99DF80630042BD3
:10CAB00003D99DF80630072B03D908496B2004F0F1
:10CAC00063F89DF806209DF9073011461846FFF7D8
:10CAD000ABFF00BF03B05DF804FB00BF588B030041
